:100000002EC100000C94B2180C94E3180C9414192F
:100010000C9445190C9476190C94A7190C94D819C2
:100020000C94091A4DC100004BC1000049C10000E9
:1000300047C100000C94CF2143C1000041C1000022
:100040003FC100003DC100003BC1000039C10000BC
:1000500037C1000035C1000033C100000C943A1ACA
:100060002FC100000C940E1E0C94441E29C10000E8
:1000700027C1000025C1000023C1000021C10000EC
:100080001FC100001DC100001BC1000019C10000FC
:100090000C94B01E0C94E61E13C1000011C10000A8
:1000A0000FC100000DC100000BC1000009C100001C
:1000B00007C1000005C1000003C1000001C100002C
:1000C000FFC00000FDC00000FBC000000C94521FE8
:1000D0000C94881FF5C000000C94F41F0C942A2087
:1000E000EFC000004209DE0A410B430B390A6A0ADD
:1000F00003092309E708200B0F0B1C0B430B430BD1
:10010000430BD208771B7C1B811B8B1B951B0E1C82
:100110009F1BA71BAF1BB91BC31BCD1BDC1BE61B07
:100120000E1CF01BFA1B041C301C331C221C261C4A
:100130002C1C6A1C371C3B1C411C451C491C4F1CB9
:10014000531C571C6A1C5D1C611C651C00000A0BBB
:1001500002090C0D0E080703040100000000000056
:10016000000000000000000000000000000000008F
:10017000000000000000000012111000000000004C
:10018000000000000000000000000000000000006F
:10019000000001021020200808102040102040809C
:1001A000020102010804020101020408102040803B
:1001B00080402010080402018004020180402010C9
:1001C0000804020108040201010204081020408012
:1001D00001020408102040800505050507050808F0
:1001E0000808020202020A0A0808040404040101C1
:1001F00001010101010103030303030303030407D6
:1002000007070C0C0C0C0C0C0C0C0202020206066C
:100210000606060606060B0B0B0B0B0B0B0B000062
:100220002200250028002B002E003100340002019E
:100230000000050108010B01000021002400270037
:100240002A002D00300033000101000004010701E5
:100250000A0102006D1E0F1FB11F5320CD20112473
:100260001FBECFEFD1E2DEBFCDBF00E00CBF13E079
:10027000A0E0B2E0E4E5FDE500E00BBF02C00790BE
:100280000D92AE3EB107D9F727E0AEEEB3E001C064
:100290001D92AB3EB207E1F712E0CEE5D2E000E0FE
:1002A00006C022970109FE010BBF0E944A2DC435EA
:1002B000D10780E00807A9F70E943B2A0C94A82EDA
:1002C0009FCE2F923F924F925F926F927F928F922A
:1002D0009F92AF92BF92CF92DF92EF92FF920F93D5
:1002E0001F93CF93DF93CDB7DEB72B970FB6F8945C
:1002F000DEBF0FBECDBF8091B2029091B302A0913C
:10030000B402B091B5028093BF079093C007A09349
:10031000C107B093C2078091E2020E942E1BA091F8
:10032000E602B091E7029C010E943B2D0E94592BEE
:1003300020E030E040E056E30E94B02C9B01AC018D
:100340006091B6027091B7028091B8029091B902A3
:100350000E94BF2A9B01AC016093C3077093C4073E
:100360008093C5079093C6076091BF077091C0073F
:100370008091C1079091C2070E94BF2A6B017C0146
:1003800020919202309193024091940250919502F3
:100390000E94B02C2091B7073091B8074091B9075F
:1003A0005091BA070E94BF2A20919E0230919F026D
:1003B0004091A0025091A1020E94B02C4B015C011F
:1003C0002091A2023091A3024091A4025091A50273
:1003D000C701B6010E94B02C2091B3073091B40739
:1003E0004091B5075091B6070E94C02AA50194011B
:1003F0000E94C02A162F272E382E092F4090A602C1
:100400005090A7026090A8027090A9029201A301E7
:100410000E94AC2C1816B4F040909A0250909B02A7
:1004200060909C0270909D029201A301612F722D39
:10043000832D902F0E94242B87FD04C0412E522C27
:10044000632C702EB201C3010E94962B6093C707E4
:100450007093C8078093C9079093CA072091CA0276
:100460003091CB024091CC025091CD020E94C02A23
:100470002B013C018091CE029091CF02A091D0023D
:10048000B091D10289839A83AB83BC839C01AD0177
:10049000C301B2010E94AC2C1816A4F08091D202C4
:1004A0009091D302A091D402B091D50289839A830E
:1004B000AB83BC839C01AD01C301B2010E94242B1C
:1004C00087FF0DC089819A81AB81BC818093CB0766
:1004D0009093CC07A093CD07B093CE0708C040926D
:1004E000CB075092CC076092CD077092CE07409018
:1004F000CB075090CC076090CD077090CE0720E0DE
:1005000030E040E853E4C301B2010E94242B87FF8E
:100510000EC020E030E0A901C301B2010E94AC2C62
:1005200087FD07C0C301B2010E942D2B03C06FEFEE
:1005300001C060E070E08091AA020E94531B2091EC
:10054000D6023091D7024091D8025091D902612F42
:10055000722D832D902F0E94B02C6E837F8388870D
:1005600099874090A6025090A7026090A8027090D0
:10057000A902A3019201612F722D832D902F0E9459
:10058000AC2C181694F040909A0250909B02609008
:100590009C0270909D02A3019201612F722D832D08
:1005A000902F0E94AC2C87FF2CC0A3019201612FD9
:1005B000722D832D902F0E94BF2A162F7B878A874A
:1005C000092F20E030E0A9017B858A850E94242B39
:1005D00087FD20C020E030E0A901612F7B858A855E
:1005E000902F0E94AC2C1816E4F020E030E0A90116
:1005F000612F7B858A85902F0E94242B882329F0E8
:1006000017C010E01B861A8600E0612C212C19828D
:100610001D8213C0612C212C90E89983AFEBAD8330
:100620000CC0612C212CB0E8B983EFE3ED8305C049
:10063000612E2B84FA85F9830D83209196023091E7
:1006400097024091980250919902C701B6010E9409
:10065000B02C762E572E482E392EC090DE02D09028
:10066000DF02E090E002F090E10220E030E040E8BC
:1006700053E4C701B6010E94242B87FF0EC020E07F
:1006800030E0A901C701B6010E94AC2C87FD07C06C
:10069000C701B6010E942D2B03C06FEF01C060E0BF
:1006A0008091AE020E94A41C20E030E0A901672DD9
:1006B000752D842D932D0E94242B87FD1BC020E0D7
:1006C00030E0A901672D752D842D932D0E94AC2C4F
:1006D0001816BCF020E030E0A901672D752D842D9F
:1006E000932D0E94242B811113C0C12CD12CE12CFD
:1006F000F12C12C0C12CD12C30E8E32E4FEBF42E9C
:100700000BC0C12CD12C90E8E92E2FE3F22E04C0AF
:10071000C72CD52CE42CF32CB601C701C3D28823F7
:1007200021F0C12CD12C76010FC0B601C7018FD2A8
:100730008111F7CF20E030E040E853E4B601C70173
:100740000E94B02B6B017C0120E030E040E053E4DC
:10075000662D722D89819D810E94242B87FF08C000
:10076000662D722D89819D810E94282B662E02C0E4
:100770008FE7682E212F3B854A85502F6E817F8120
:10078000888599850E94242B882331F120E030E070
:10079000A901C701B6010E94242B87FF07C0C7012A
:1007A000B60190580E942D2B619504C0C701B60177
:1007B0000E942D2B772767FD7095862D992787FD41
:1007C00090956817790741F47090DA025090DB0237
:1007D0004090DC023090DD022091BA023091BB02E1
:1007E0004091BC025091BD02672D752D842D932D33
:1007F0000E94B02C9B01AC016091B3077091B407CB
:100800008091B5079091B6070E94C02A6093B30704
:100810007093B4078093B5079093B6072091C202F6
:100820003091C3024091C4025091C502C501B40188
:100830000E94B02C9B01AC016091B7077091B80782
:100840008091B9079091BA070E94C02A6093B707B8
:100850007093B8078093B9079093BA0781E090E04E
:100860000E941B1840919E0750919F076091A0071E
:100870007091A10780E090E00E9417188090AE0769
:100880009090AF07A090B007B090B10720E030E0A3
:1008900040E85FEBC501B4010E94242B882331F1AD
:1008A000C0909E07D0909F07E090A007F090A1070E
:1008B000A7019601C501B4010E94BF2A4B015C014A
:1008C00020E030E040E054E3C701B6010E94B02CC4
:1008D0009B01AC01C501B4010E94AC2C181634F088
:1008E0008EEE92E090938907809388078091B207FB
:1008F000882331F08EEE92E09093890780938807E9
:100900006091A2077091A3078091A4079091A50719
:100910006F5F7F4F8F4F9F4F6093A2077093A30726
:100920008093A4079093A507611571058105910532
:10093000A1F40091A6071091A7072091A807309174
:10094000A9070F5F1F4F2F4F3F4F0093A60710932C
:10095000A7072093A8073093A907C090AA07D090B3
:10096000AB07E090AC07F090AD070E94592BA701B0
:1009700096010E94B02C4B015C016091A60770911A
:10098000A7078091A8079091A9070E94592BA7015A
:1009900096010E94B02C20E030E040E85FE40E9425
:1009A000B02C9B01AC01C501B4010E94C02A609328
:1009B0009E0770939F078093A0079093A1072B96A3
:1009C0000FB6F894DEBF0FBECDBFDF91CF911F9160
:1009D0000F91FF90EF90DF90CF90BF90AF909F90DE
:1009E0008F907F906F905F904F903F902F900895E1
:1009F000CF93DF9384E090E0F3D08BE2E8E8F7E078
:100A0000DF011D928A95E9F780E090E0A0E8BFEB56
:100A10008093AE079093AF07A093B007B093B10750
:100A20008FE692E1A3E8BAE38093AA079093AB071D
:100A3000A093AC07B093AD07ECE8F7E08DE898E33E
:100A4000A1E1B1E980839183A283B38386EA9FE227
:100A5000ACECB9E08093900790939107A093920734
:100A6000B09393078DE399E8A4E2BFE080939407E5
:100A700090939507A0939607B093970781E093E32F
:100A8000A6E5BDE18093980790939907A0939A07F4
:100A9000B0939B07A2E0B4E0B0938B07A0938A07C2
:100AA00080E094E08D939C938EE693E09093010414
:100AB000809300042CE937E0309307042093060468
:100AC000F0930504E09304048EE997E09093090401
:100AD0008093080480E1EFEBF7E0EF0119928A952B
:100AE000E9F7C3EBD7E08CE0FE0111928A95E9F7B4
:100AF000EEEEF3E082E1DF011D928A95E9F7D9017C
:100B0000ED93FC9380E190E09183808382E792E013
:100B10009093F1038093F00382E592E09093F303C6
:100B20008093F20386E392E09093F5038093F403BD
:100B30008AE092E09093F7038093F6036091E202DB
:100B40007091E3028091E4029091E5020E942F22CD
:100B500061E08091AA020E946B1C61E08091AE026C
:100B60000E946B1C8091BE029091BF02A091C002B6
:100B7000B091C10288839983AA83BB838091C60206
:100B80009091C702A091C802B091C9028093B707A3
:100B90009093B807A093B907B093BA07DF91CF91AC
:100BA0000895089560E070E080E89FE7089560E0B0
:100BB00070E080E89FE7089560E070E080E89FEFD4
:100BC000089560E070E080E89FEF089560E070E0D5
:100BD00080EC9FEF089560E070E080EC9FEF089557
:100BE000F5DF6093DB077093DC078093DD0790935C
:100BF000DE07F1DF6093CF077093D0078093D107B2
:100C00009093D207CFDF6093D7077093D807809374
:100C1000D9079093DA07CBDF6093D3077093D4079B
:100C20008093D5079093D607C7DF6093DF07709353
:100C3000E0078093E1079093E207C3DF6093E30747
:100C40007093E4078093E5079093E6070895CF92A9
:100C5000DF92EF92FF92CF936B017C012091D70737
:100C60003091D8074091D9075091DA070E94242B80
:100C7000882389F0C1E02091DF073091E00740919F
:100C8000E1075091E207C701B6010E94242B8111B0
:100C9000C0E08C2F01C081E0CF91FF90EF90DF90FA
:100CA000CF900895CF93C1E09B01AC010E94242B0B
:100CB000811101C0C0E08C2FCF910895CF93DF93B5
:100CC000CDB7DEB72A970FB6F894DEBF0FBECDBF03
:100CD000AC01CB0160E070E049835A836B837C8375
:100CE000AA2797FDA095BA2F8D839E83AF83B887DF
:100CF0009E01275F3F4FAE014F5F5F4F68E070E09E
:100D000080911304909114040E944829811108C015
:100D100081E029853A852830310519F480E001C049
:100D200081E02A960FB6F894DEBF0FBECDBFDF91EB
:100D3000CF9108950F931F93CF93DF931F921F922C
:100D4000CDB7DEB78B019E012F5F3F4FAC01809185
:100D50001304909114040E944829811108C081E075
:100D600029813A812017310719F480E001C081E020
:100D70000F900F90DF91CF911F910F910895CF9316
:100D8000DF93EC011092170410921604AC0160E09E
:100D900070E0CB010E942B12AE0161E070E080E0B8
:100DA00090E00E942B128091130490911404DF9123
:100DB000CF910C949729EF92FF920F931F93CF93AB
:100DC000DF931F921F92CDB7DEB78C018091110483
:100DD0009091120480179107B4F580910F049091BF
:100DE0001004009731F00E94002E1092120410920D
:100DF0001104C8010E94682D9093100480930F0481
:100E0000892B19F4E12CF12C18C0109312040093D3
:100E1000110419C02EE034E0AE014F5F5F4F61E076
:100E200070E080911304909114040E94892881112C
:100E300007C089819A81E80EF91EE016F10654F385
:100E400080E090E01FC0E12CF12C20910F04309144
:100E50001004E016F106ACF42E0D3F1DAE014F5FFD
:100E60005F4FB8016E197F098091130490911404AB
:100E70000E9489288111E4CF89819A81E80EF91EA8
:100E8000E4CFC9010F900F90DF91CF911F910F9187
:100E9000FF90EF9008950F931F93CF93DF93EB0193
:100EA0008A010CDF81110AC00115110539F0BE015C
:100EB000C801DF91CF911F910F913CCFDF91CF916E
:100EC0001F910F910895CF92DF92EF92FF92CF93EF
:100ED000DF93CDB7DEB728970FB6F894DEBF0FBE0D
:100EE000CDBF6B01E12CF12CC982DA82EB82FC824E
:100EF0002D833E834F835887AE014F5F5F4F68E07D
:100F000070E0C9DF28960FB6F894DEBF0FBECDBFE4
:100F1000DF91CF91FF90EF90DF90CF9008950F93E6
:100F20001F93CF93DF93EC018B010E948528909350
:100F3000140480931304009741F0A801BE010E949D
:100F40000A28EC01009719F40CC0C1E7D3E08091A6
:100F50001304909114040E94882810921404109293
:100F60001304CE01DF91CF911F910F9108958091CD
:100F70001304909114040C9482286F927F928F92A4
:100F80009F92AF92BF92CF92DF92EF92FF920F9318
:100F90001F93CF93DF9300D000D0CDB7DEB76B01A6
:100FA0007C014A0180911704882309F441C094010F
:100FB000B701A601CE0101960E94BA1689819A81D5
:100FC00018161906ACF5A12CB12C00E010E08981AF
:100FD0009A81081719075CF76B807C806A0C7B1C70
:100FE000F3016081718182819381A4DE81111EC031
:100FF000F30164817581161617062CF4868197819A
:1010000099DE811113C0C801880F991FED81FE81FF
:10101000E80FF91FB701A601808191810E945D123E
:101020000F5F1F4FF8E0AF0EB11CD1CFC401A7DE98
:1010300026960FB6F894DEBF0FBECDBFDF91CF91DD
:101040001F910F91FF90EF90DF90CF90BF90AF90E6
:101050009F908F907F906F900895CF93DF93EC01D6
:10106000AC0160E070E0CB0188DFAE0161E070E0D0
:1010700080E090E0DF91CF9180CFCF9380911304F7
:10108000909114040E94E627C82F811109C060E0E6
:1010900070E0CB0166D561E070E080E090E061D562
:1010A0008C2FCF9108950F931F9389019A01AB0163
:1010B000BC0180911304909114040E9496291F9101
:1010C0000F9108954F925F926F927F928F929F92AD
:1010D000AF92BF92CF92DF92EF92FF920F931F9346
:1010E000CF93DF93CDB7DEB766970FB6F894DEBF28
:1010F0000FBECDBF4C015B018A018091170488238C
:1011000069F080911704882309F4BDC21A821982FC
:10111000E12CF12C78E0C72ED12C14C067E174E0EB
:1011200080911304909114040E94E8278111ABC2AE
:10113000E8CFE20EF31EE114F104D9F088E0E816DE
:10114000F104BCF429E030E02C0F3D1F2E0D3F1DB3
:10115000AE014F5F5F4FB6016E197F098091130496
:10116000909114040E94892829813A81882309F3E7
:1011700088C2121613060CF086C2809116048111E3
:1011800004C019861A861B861C8689859A85AB85BC
:10119000BC858031910508F076C2FC01EE58FF4F06
:1011A0000C94352DD4011696ED91FC911797808102
:1011B0009181A281B38189839A83AB83BC83AE0181
:1011C0004F5F5F4F64E070E085E190E06CC18D851A
:1011D0009E85F1DD009731F42FEF3FEFA90161E02B
:1011E00070E00EC0FC01C080D180E280F380A501D8
:1011F000C701B6010E94E011A701960160E070E00E
:101200008DE190E03CC28D859E85D5DD009721F46F
:101210002FEF3FEFA9010FC0DC01CD90DD90ED90E5
:10122000FD90AD0197018601B501C401B0D5A701BC
:101230009601882319F061E070E002C060E070E080
:101240008BE190E01CC28D859E85B5DD009721F471
:101250002FEF3FEFA9010EC0FC01C190D190E190AA
:10126000F190BF01A7019601C40186D7A70196019D
:10127000882319F061E070E002C060E070E08CE16A
:1012800090E0FDC1D4011496ED91FC911597E0809A
:10129000F180F70102811381A080B18060E1462EC8
:1012A000512C612C712C49825A826B827C8288E09D
:1012B00090E0A0E0B0E08D839E83AF83B8879E016D
:1012C0002F5E3F4FAE014F5F5F4F68E070E080914F
:1012D0001304909114040E944829882319F0E12CEA
:1012E000F12CAEC089899A890897C9F7D701CD90AA
:1012F000DC90B8E0CB0ED11CCC0CDD1CCC0CDD1C82
:10130000C6010E94682D7C01009749F349825A82E8
:101310006B827C82C601AA2797FDA095BA2F8D8388
:101320009E83AF83B8879E012F5E3F4FAE014F5F14
:101330005F4F68E070E080911304909114040E9464
:10134000482981117DC089899A89089709F078C058
:10135000D4011296ED91FC911397408151816281E5
:101360007381D7014D935D936D937C931397448163
:1013700055816681778114964D935D936D937C932F
:101380001797408551856285738518964D935D93B7
:101390006D937C931B9784859585A685B785F7010A
:1013A00084879587A687B787108A118A128A138A3D
:1013B00084E090E0A0E0B0E0848B958BA68BB78BA7
:1013C0008091EA029091EB02A0E0B0E0808F918FD3
:1013D000A28FB38FC501AA2797FDA095BA2F848F3E
:1013E000958FA68FB78FB801A701405E5F4F20E0B1
:1013F00030E02A153B057CF4DB018D919D91BD0108
:10140000A0E0B0E0FA0181939193A193B193AF0171
:101410002F5F3F4FEECF9E012F5E3F4FA701B601DA
:1014200080911304909114040E944829811108C0EE
:1014300089899A898C159D0519F481E08093160499
:10144000C70166960FB6F894DEBF0FBECDBFDF9121
:10145000CF911F910F91FF90EF90DF90CF90BF90B1
:10146000AF909F908F907F906F905F904F900C9473
:10147000002E8D859E85AF85B8890097A105B105A1
:1014800029F199DC009789F481E090E0A0E0B0E0D8
:1014900089839A83AB83BC83AE014F5F5F4F64E067
:1014A00070E082E190E0F7DCEEC0BC01C401ACD298
:1014B00019821A821B821C82AE014F5F5F4F64E06B
:1014C00070E082E190E0E7DC8111DDC081E0809393
:1014D0001504D9C0D4011496ED91FC911597019093
:1014E000F081E02D008511850115110509F460C01A
:1014F000D801ED90FC90C280D38020E030E060E025
:1015000070E080E090E08E159F050CF5F801A28157
:10151000B381A20FB31F1296ED91FC911397EE0FBA
:10152000FF1FEC0DFD1D0190F081E02D16960D9032
:10153000BC91A02DEA9FA001EB9F500DFA9F500D8A
:101540001124640F751F0196285F3F4FDCCF83E1A4
:1015500090E0B4DB811197C0812C912CA12CB12C8F
:10156000AE14BF040CF08FC0D8011296ED91FC911F
:101570001397E80DF91DA281B381AA0FBB1FAC0D13
:10158000BD1D2D913C9186819781289FB001299F97
:10159000700D389F700D112480819181CBDBB8E0F4
:1015A0008B0E911C81116FC0EFEFAE1ABE0AD8CF1F
:1015B00060E070E083E190E081DB65C040E050E0F6
:1015C00060E070E081E190E066DC81115CC0C12CDC
:1015D000D12C7601C701B601C1D38091A004882324
:1015E00021F0A501C701B601C8DCA501C701B601FC
:1015F000DCD2FFEFCF1ADF0AEF0AFF0A82E0C8163B
:10160000D104E104F10431F710921704109216048A
:1016100080911304909114040E94F32734C081E058
:1016200090E09093A2048093A10440E050E060E039
:1016300070E086E190E037CF81E0D8018C9323C041
:101640008D859E85B8DB009731F42FEF3FEFA90120
:1016500061E070E012C0FC01208131814281538140
:10166000CA01B9012B8B3C8B4D8B5E8BFFD62B892E
:101670003C894D895E8960E070E08EE190E023DC7A
:1016800002C0C5017CDB66960FB6F894DEBF0FBEC4
:10169000CDBFDF91CF911F910F91FF90EF90DF9021
:1016A000CF90BF90AF909F908F907F906F905F9002
:1016B0004F900895CF92DF92EF92FF92CF93DF93F6
:1016C000EC01C12CD12C7601C701B60147D3AE0184
:1016D000C701B60152DCAE01C701B60166D28091E6
:1016E0000F0490911004009731F00E94002E109288
:1016F000100410920F048FEFC81AD80AE80AF80AEB
:1017000082E0C816D104E104F104F1F680911604D8
:10171000882359F040E050E060E070E084E190E020
:10172000BADBC82F1092160401C0C0E080911704E4
:10173000882341F01092170421E030E03093EB024F
:101740002093EA0280911304909114040E94F627DA
:1017500080911304909114040E9488288C2FDF91AB
:10176000CF91FF90EF90DF90CF900895CF93DF93CC
:10177000EC01AC0160E070E0CB010E943116AE01DB
:1017800061E070E080E090E0DF91CF910C94311641
:1017900060E070E0CB010E94961661E070E080E0AE
:1017A00090E00C949616CF92DF92EF92FF920F93F7
:1017B0001F93CF93DF93EC016A017B0100E010E0FF
:1017C0009801A4D601E010E020E030E0B701A601C6
:1017D000CE019CD6DF91CF911F910F91FF90EF909A
:1017E000DF90CF900895EF92FF920F931F93CF93C6
:1017F000DF93DC01EA01F90114968D919C91159714
:1018000012960D911C911397080F191F2881398189
:1018100018964D915C9119974217530728F04D91F6
:101820005C911197452B59F17801E21AF30A189649
:101830004D915C911997481B590B4E0D5F1D461732
:101840005707B4F1A901460F571F4017510700F180
:10185000F182E082338322836E197F09758364836A
:10186000161617061CF030E020E002C0382F292F92
:1018700036832783680F791F7983688317C018968A
:101880008D919C911997821B930B8617970784F073
:1018900071836083338322831582148217821682B8
:1018A00088819981860F971F9983888380E001C082
:1018B00081E0DF91CF911F910F91FF90EF900895FC
:1018C000CF93DF9324E4269FE001279FD00D1124BE
:1018D000C85EDB4F8AA99BA9009721F00E94002EC9
:1018E0001BAA1AAA8EA99FA9009711F00E94002E88
:1018F0001B8A1A8A1E8A1F8A188E198E1A8E1B8EB0
:101900001C8E1D8E1E8E1F8E18A219A281E090E0E3
:101910009BA38AA31DA21CA21EA21FA218A619A6E1
:101920001BA61AA61DA61CA61EA61FA618AA19AAA3
:101930001BAA1AAA1DAA1CAA1FAA1EAA19AE18AE73
:101940001AAE1BAE1CAE1DAEFE01FE9610821182B9
:1019500012821382CE5BDF4F19821882DF91CF9102
:101960000895CF93DF93FB01DC01CD91DC91AE8133
:10197000BF818081918123E0880F991F2A95E1F72B
:1019800012960D90BC91A02DA80FB91F6D917C915E
:10199000119784859585880F991F0A80DB81C02D5A
:1019A000C80FD91F0990D881C02D14968D919C9194
:1019B0001597892B19F082E090E002C081E090E059
:1019C0008C9F90018D9F300D9C9F300D1124808540
:1019D0009185289FD001299FB00D389FB00D11240B
:1019E0000480F581E02D2E9FC0012F9F900D3E9F1A
:1019F000900D1124860F971FFA0191838083B38382
:101A0000A283DF91CF9108952F923F924F925F92E0
:101A10006F927F928F929F92AF92BF92CF92DF92FE
:101A2000EF92FF920F931F93CF93DF9300D000D0DC
:101A3000CDB7DEB7DC011496ED91FC9115970190BE
:101A4000F081E02D808591859A838983A281B3817D
:101A5000BC83AB83DB018D909D90AD90BD90C12C7C
:101A6000D12C7601C814D904EA04FB040CF060C040
:101A700014964D905D906D907C90179718964D91AF
:101A80005D916D917C911B97FD017096FE83ED83B6
:101A90008D919C91119763E0880F991F6A95E1F7EA
:101AA000E981FA8122813381280F391FF9012080D1
:101AB00031801C96ED91FC911D97EE0FFF1F8B81DD
:101AC0009C81E80FF91F0190F081E02DD901149657
:101AD0008D919C911597892B19F082E090E002C0BE
:101AE00081E090E08E9F90018F9F300D9E9F300D82
:101AF0001124249F8001259F100D349F100D112467
:101B0000249DC001259D900D349D900D1124A801A8
:101B10006D817E81820D931D0E948F2EAD81BE81CD
:101B2000A00FB11FEFEFCE1ADE0AEE0AFE0A9ACF1F
:101B300026960FB6F894DEBF0FBECDBFDF91CF91D2
:101B40001F910F91FF90EF90DF90CF90BF90AF90DB
:101B50009F908F907F906F905F904F903F902F90CD
:101B60000895CF93DF9324E4269FF001279FF00D83
:101B70001124E85EFB4FDB01A851BD4F3C9133239C
:101B800029F0EF0119922A95E9F71C921482158227
:101B9000168217821186108613861286118A108A81
:101BA00017861686DF91CF918BCE2F923F924F9260
:101BB0005F926F927F928F929F92AF92BF92CF92DD
:101BC000DF92EF92FF920F931F93CF93DF9300D09A
:101BD0001F92CDB7DEB76B017C011A0184E48C9DA6
:101BE00090018D9D300D1124285E3B4F3C832B834B
:101BF000F90184819581A681B781892B8A2B8B2B52
:101C000009F495C0A12CB12C412C512C3201AB818F
:101C1000BC8114964D915D916D917C9117971896AA
:101C20008D919C91199744165506660677068CF59A
:101C3000FC01EA0DFB1D32812381032F122F812C21
:101C4000912C82149304C4F4D801ED91FC91309747
:101C500069F0848195812A8339830E94002EF801DE
:101C6000808191810E94002E39812A81FFEF8F1A95
:101C70009F0A0E5F1F4FE5CF832F922F0E94002EE9
:101C80002FEF421A520A620A720A34E0A30EB11C04
:101C9000BECF0E94002EEB81FC8182859385892B2B
:101CA000E1F0A12CB12C00E010E0AB81BC811A96D0
:101CB0008D919C911B97021513056CF4FC01EA0DA4
:101CC000FB1D848195810E94002E0F5F1F4FFEE057
:101CD000AF0EB11CEACF0E94002EEB81FC818089FF
:101CE00091890E94002EAB81BC811E968D919C91A2
:101CF0001F970E94002EC701B601E2DDC701B601A1
:101D00000F900F900F900F90DF91CF911F910F9137
:101D1000FF90EF90DF90CF90BF90AF909F908F900B
:101D20007F906F905F904F903F902F901ACF0F90C1
:101D30000F900F900F90DF91CF911F910F91FF9017
:101D4000EF90DF90CF90BF90AF909F908F907F905B
:101D50006F905F904F903F902F90089524E4269FBE
:101D6000F001279FF00D1124E85EFB4F82899389D3
:101D70000497029758F485E090E0938B828B8FEF65
:101D80009FEFDC01828F938FA48FB58F08952F92E0
:101D90003F924F925F926F927F928F929F92AF92FB
:101DA000BF92CF92DF92EF92FF920F931F93CF9348
:101DB000DF93CDB7DEB7AA970FB6F894DEBF0FBE9C
:101DC000CDBF9AA389A31B016A010B8B1C8B2D8BA2
:101DD0003E8B84E42B893C89829F8001839F100D78
:101DE0001124085E1B4F2B893C894D895E89D801DF
:101DF0002D933D934D935C931397AB016B897C8935
:101E00008D899E89D2DEF601419151916191719146
:101E10007F01CA01D80114964D935D936D937C9315
:101E2000179764E070E00E944E2DF801918780873B
:101E3000892B09F46DC118A21F8E1B8E1C8E1D8E5E
:101E40001E8EF80184819581A681B7812B8D3C8DF2
:101E50004D8D5E8D281739074A075B070CF0D1C0FE
:101E6000D80118960D90BC91A02D2F8D38A1A20FEE
:101E7000B31FBA8BA98BD7018D919C91880F991FA5
:101E8000A9A1BAA1ED91FC91E80FF91F8081918180
:101E9000E989FA8991838083D70114962D913D9128
:101EA0004D915C9117972BA33CA34DA35EA3B8E083
:101EB000EB0EF11C62E070E0C1010E944E2DE98939
:101EC000FA8993838283892B09F422C11F8A188E91
:101ED000198E1A8E2F89388D498D5A8D8BA19CA110
:101EE000ADA1BEA1281739074A075B070CF018C13E
:101EF000D701CD90DC90CC0CDD1CE989FA89A28059
:101F0000B380AC0CBD1C68E070E081E090E00E9402
:101F10004E2DD5018D939C93A989BA891296ED9186
:101F2000FC911397EC0DFD1D80809180811491042C
:101F300009F4EEC0F7014481558166817781CA01B9
:101F4000D4014D935D936D937C931397B8E0EB0EA2
:101F5000F11C64E070E00E944E2DF40195838483AF
:101F6000892B09F4D5C0A12CB12C412C512C320164
:101F7000F40180819181A281B381481659066A06D5
:101F80007B0694F5D4011496CD90DC901597CA0C7D
:101F9000DB1CF701DE01119680E101900D928A951C
:101FA000E1F7B0E1EB0EF11CA601BE016F5F7F4FC0
:101FB000E9A1FAA184819581D4DCD40116968D9192
:101FC0009C911797F60122813381820F931F1796F8
:101FD0009C938E931697FFEF4F1A5F0A6F0A7F0A42
:101FE00024E0A20EB11CC4CF2F89388D498D5A8DA3
:101FF0002F5F3F4F4F4F5F4F2F8B388F498F5A8F37
:1020000069CF6EE070E0C1010E944E2DD8011B9691
:102010009C938E931A97612C712C812C912CA12C5E
:10202000B12C44244394512C821493040CF050C0DE
:10203000F70141915191619171917F01CA01D801DC
:102040001A96CD90DC901B97C60CD71C57FD60C02C
:10205000F60151824082009791F04FA358A769A7DB
:102060007AA70E94682DD60115969C938E9314979B
:102070004FA158A569A57AA5892B21F449C0F6017D
:1020800015821482D60113965C934E931297149680
:102090008D919C91159717969C938E9316971996F0
:1020A0009C938E9318971B961C921E921A9781E010
:1020B00090E0452B462B472B11F480E090E0A80ED2
:1020C000B91EBFEF8B1A9B0AEEE06E0E711CACCFEF
:1020D000D8011D961C921E921C97C501F3E0880F33
:1020E000991FFA95E1F70E94682DF801918B808B7A
:1020F000892B71F0C501880F991F0E94682DD801A6
:102100001F969C938E931E97892B11F080E01BC025
:10211000A1016B897C898D899E8947DD81E013C08F
:102120002B8D3C8D4D8D5E8D2F5F3F4F4F4F5F4F01
:102130002B8F3C8F4D8F5E8F2F8D38A12C5F3F4FA3
:1021400038A32F8F7ECEAA960FB6F894DEBF0FBEAF
:10215000CDBFDF91CF911F910F91FF90EF90DF9056
:10216000CF90BF90AF909F908F907F906F905F9037
:102170004F903F902F9008953F924F925F926F92B1
:102180007F928F929F92AF92BF92CF92DF92EF9207
:10219000FF920F931F93CF93DF93CDB7DEB7649772
:1021A0000FB6F894DEBF0FBECDBF4C01FB01298BEB
:1021B0003A8B4B8B5C8B84E4829F8001839F100D54
:1021C0001124065D1B4F80819181D80113969C9349
:1021D0008E931297448155816681778114964D9331
:1021E0005D936D937C9317974085518562857385C8
:1021F00018964D935D936D937C931B9744855585FD
:10220000668577851C964D935D936D937C931F97A0
:1022100040895189628973895C964D935D936D9372
:102220007C935F977F01B4E1EB0EF11C1416150649
:102230000CF05DC0CA01880F991F880F991F0E947A
:10224000682DF80191A380A3892B09F499C0A12CD2
:10225000B12C412C512C320130E1332EB301A201BB
:102260002FEF421A520A620A720AF801848D958D84
:10227000A68DB78D481759076A077B0764F5D80103
:102280009096CD90DC909197CA0CDB1CF701DE0193
:102290001196832D01900D928A95E1F7B0E1EB0E36
:1022A000F11CA601BE016F5F7F4FF401848195810F
:1022B00058DBD80192968D919C919397F6012281DB
:1022C0003381820F931F93969C938E939297F4E0A1
:1022D000AF0EB11CC3CF82A193A10E94682DD8017B
:1022E00095969C938E939497892B09F449C0F70196
:1022F00080819181A281B381AC01BD014D7F21E03C
:1023000030E0452B462B472B11F020E030E0F80160
:10231000318B208B0197A109B10921E030E00297B0
:10232000A105B10510F020E030E0D80153963C93B0
:102330002E935297F70184819581A681B781F80188
:10234000848B958BA68BB78B84859585A685B78561
:10235000B7FF10C0B095A095909581959F4FAF4F56
:10236000BF4F80A791A7A2A7B3A71486158616868C
:1023700017860DC0F80110A611A612A613A607C055
:1023800069897A898B899C899BDA81E001C080E028
:1023900064960FB6F894DEBF0FBECDBFDF91CF912C
:1023A0001F910F91FF90EF90DF90CF90BF90AF9073
:1023B0009F908F907F906F905F904F903F90089587
:1023C000CF93DF9324E4269FF001279FF00D112483
:1023D000E85EFB4F1092A00415A614A620E030E0A2
:1023E00080E090E0C1E0D0E08417950714F5A28565
:1023F000B385A20FB31F12966D917C911397161699
:1024000017069CF414966D917C91159717967C9302
:102410006E93169719967C936E9318971B961C9241
:102420001E921A971196DC93CE930196225F3F4F2E
:10243000DBCF13A612A611AE10AEDF01DE961D9201
:102440001D921D921C92139782E090E0938B828BD9
:10245000DF91CF91089524E4269FF001279FF00D8E
:102460001124E85EFB4F138A128A9FCB24E4269F37
:10247000F001279FF00D1124E85EFB4F82899389BC
:1024800081309105C8F08530910518F0059769F005
:1024900008958FEF9FEFDC01828F938FA48FB58F0C
:1024A00085E090E0938B828B08958FEF9FEFDC01A6
:1024B000828F938FA48FB58F089524E4249FF00119
:1024C000259FF00D1124E85EFB4F2EE0AC01249F08
:1024D000C001259F900D11240284F385E02DE80FA3
:1024E000F91F81E08093A00482859385918780877E
:1024F000408551852681378181E090E0421753075E
:1025000011F080E090E09183808308952F923F92B4
:102510004F925F926F927F928F929F92AF92BF92F3
:10252000CF92DF92EF92FF920F931F93CF93DF939F
:10253000CDB7DEB7C454D1090FB6F894DEBF0FBED5
:10254000CDBF98AF8FAB4BA75CA76DA77EA7239697
:102550000CAF1DAF2EAF3FAF239784E421962EAD75
:102560003FAD2197829F1001839F300C1124C10140
:10257000885E9B4F1C01DC011A960D90BC91A02D2A
:102580002596BFAFAEAF2597FC018289938902974C
:1025900009F018C186A597A5A0A9B1A9892B8A2BF6
:1025A0008B2B29F484E090E0938B828B0BC1D101BB
:1025B00084899589EFA9F8ADE817F90709F002C1F8
:1025C000D6960D911C91D7971AAE19AE412C512C6D
:1025D0003201F10186A597A5A0A9B1A9481659060F
:1025E0006A067B060CF0D0C0D101D2960D90BC914A
:1025F000A02DE9ADFAADAE0FBF1FBAABA9AB1296D5
:102600002D913C9113973CAF2BAF3695279536957E
:1026100027953EAF2DAFD101D8968D919C91D9973A
:10262000892B09F495C09696CD90DD90ED90FC90A5
:10263000999718AB0FA7E9A9FAA90190F081E02DAD
:10264000FCABEBAB1EAA1DAAEDA9FEA92DAD3EADBC
:10265000E217F3070CF07CC0D10192968D919C910A
:102660009397892B79F1EBA9FCA980809180A280B6
:10267000B380A7019601C501B4010E94AC2C87FD6F
:102680000CC0A7019601AFA5B8A96D917D918D9160
:102690009C910E94242B87FD7CC0A7019601C50157
:1026A000B4010E94AC2C18166CF4A7019601EFA59A
:1026B000F8A960817181828193810E94242B8823F3
:1026C00009F467C0D10194968D919C919597892BBF
:1026D00071F1EBA9FCA980809180A280B380A70151
:1026E0009601C501B4010E94242B87FF0CC0A701ED
:1026F0009601AFA5B8A96D917D918D919C910E9495
:10270000AC2C87FF46C0A7019601C501B4010E9409
:10271000242B81110CC0A7019601EFA5F8A96081B7
:102720007181828193810E94AC2C181694F12DA99D
:102730003EA92F5F3F4F3EAB2DAB8FA598A90496C6
:1027400098AB8FA7ABA9BCA91496BCABABAB7CCFA5
:10275000A9A9BAA96D917C914BAD5CADC8010E944D
:102760008F2E8DAD9EAD880F991F880F991F080F72
:10277000191FBFEF4B1A5B0A6B0A7B0AE9ADFAAD72
:102780003496FAAFE9AF25CF81E090E091AF80AF0A
:1027900019C0F101868D978DA0A1B1A1892B8A2B3B
:1027A0008B2B09F03AC284E090E0D10153969C93C0
:1027B0008E935297DE968D919C91DF979B969C937A
:1027C0008E939A97D10152968D919C915397823016
:1027D000910589F4DA968D919D910D90BC91A02D73
:1027E000181619061A061B060CF021C2E1E0F0E0EB
:1027F000F8ABEFA705C0049709F019C218AA1FA6E5
:102800008EE02FA938AD829F5001839FB00C112418
:1028100025968EAD9FAD2597A80EB91ED5011296AF
:102820004D915C9113974115510509F400C216961C
:102830008D919C9117979AA789A7FE01319684E103
:10284000DF011D928A95E9F723968CAD9DADAEAD63
:10285000BFAD2397898B9A8BAB8BBC8BAFA5B8A9E7
:10286000AB2B09F448C04101BEE38B0E911CF4016F
:10287000C080D180E280F380F10182AD93ADA4AD40
:10288000B5ADC816D906EA06FB06A9F5D50114961A
:102890006D917C91159718960D90BC91A02D149672
:1028A0000D911D912D913C911797C8010D8B1E8B99
:1028B0002F8B388F08969E8B8D8BF5012085318567
:1028C000280F391F3187208780859185460F571F34
:1028D000841B950B97FD04C0680F791F7187608773
:1028E000F1E0CF1AD108E108F108D401CD92DD92D0
:1028F000ED92FC9213979E012B5E3F4FAE01475D18
:102900005F4F64E170E0C5010E94F30B082F10E0F7
:102910000115110509F06DC18CE090E0A0E0B0E078
:102920008D839E83AF83B8879E01235E3F4FAE01A8
:10293000475D5F4F64E070E0C5010E94F30B082F14
:1029400010E00115110509F054C180E190E0A0E00C
:10295000B0E08D839E83AF83B8874D8D5E8DBE01C1
:10296000655D7F4F8F8D98A10E948F2E8BA19CA1BA
:10297000009761F06D8D7E8DEBE2F0E0EC0FFD1FB6
:102980006E0F7F1F49A15AA10E948F2E1DA21EA269
:102990001FA218A62FA938AD220F331F3EAB2DABB7
:1029A000CDA0DEA0EFA0F8A4F10184819581A681DD
:1029B000B781C816D906EA06FB060CF0CBC0D101D8
:1029C0001896ED91FC911997C601880F991F880FF1
:1029D000991FE80FF91FA081B1818C91882309F418
:1029E000AFC0833009F4ACC00280F381E02D2DA983
:1029F0003EA9E20FF31F808191819CAB8BAB892BA9
:102A000009F49EC089859A85AB85BC850196A11D78
:102A1000B11D89879A87AB87BC879E01235E3F4F94
:102A2000AE01475D5F4F64E070E0C5010E94F30BAB
:102A300090E0009709F0DCC08D819E81AF81B88560
:102A40000496A11DB11D8D839E83AF83B8874D8DE4
:102A50005E8DBE016B5D7F4F8F8D98A10E948F2E82
:102A60008BA19CA1009761F06D8D7E8DA5E2B0E0F9
:102A7000AC0FBD1F6A0F7B1F49A15AA10E948F2E68
:102A80001AAA19AA412C512C3201EBA9FCA9808168
:102A90009181A281B381481659066A067B060CF023
:102AA0004FC0EBA9FCA98480958029A93AA9820E80
:102AB000931ED40112966D917C9113979E01235E13
:102AC0003F4FAE01475D5F4FC5010E94F30B90E0A1
:102AD000009709F08DC0F40142815381662757FDAC
:102AE0006095762F8D819E81AF81B885840F951F6B
:102AF000A61FB71F8D839E83AF83B88760817181C6
:102B00004D8D5E8D8F8D98A10E948F2E8BA19CA1E3
:102B1000009759F0D4016D917C912D8D3E8D620FFF
:102B2000731F49A15AA10E948F2EBFEF4B1A5B0A57
:102B30006B0A7B0AE9A9FAA93496FAABE9ABA5CFEF
:102B4000FFEFCF1ADF0AEF0AFF0ACDA2DEA2EFA243
:102B5000F8A626CF89859A85AB85BC85892B8A2BDB
:102B60008B2B09F446C08AE190E0A0E0B0E08983B5
:102B70009A83AB83BC832FA938ADC901AA2797FDDF
:102B8000A095BA2F8D879E87AF87B88B4D895E89B8
:102B9000BE016F5F7F4F8F89988D0E948F2E8B8D26
:102BA0009C8D009761F06D897E89A1E0B0E0AC0F4B
:102BB000BD1F6A0F7B1F498D5A8D0E948F2E89A5DC
:102BC0009AA5F50197838683118210822FA538A9D3
:102BD000232B69F1F101FE9680819181A281B3815D
:102BE0000196A11DB11D80839183A283B3831FC071
:102BF0008C018FA598A9892BD1F4012BC1F081E01C
:102C000090E0D1019D969C938E939C9785E090E0F7
:102C100053969C938E9352970AC083E090E0F10103
:102C2000938B828B81E090E093A782A7CBCDCC5B86
:102C3000DF4F0FB6F894DEBF0FBECDBFDF91CF914F
:102C40001F910F91FF90EF90DF90CF90BF90AF90CA
:102C50009F908F907F906F905F904F903F902F90BC
:102C60000895CF92DF92EF92FF920F931F93CF932D
:102C7000DF9324E4269FE001279FD00D1124C85E36
:102C8000DB4F2A893B892115310509F446C02130E3
:102C90003105A9F4CAA4DBA496012F5F3F4F3BA7DF
:102CA0002AA7EE24D7FCE094FE2C0A8D1B8D2C8DD8
:102CB0003D8DC016D106E206F30679F581DB8A89DF
:102CC0009B89039751F54AA55BA5CA0101969BA76D
:102CD0008AA7662757FD6095762F8E8D9F8DA8A1B8
:102CE000B9A1481759076A077B07BCF08EAD9FADA5
:102CF0009BA78AA784E090E09B8B8A8B8AAD9BADD3
:102D0000ACADBDAD181619061A061B0634F4CE5B21
:102D1000DF4F81E090E099838883DF91CF911F910D
:102D20000F91FF90EF90DF90CF90089524E4269FBD
:102D3000F001279FF00D1124E85EFB4F82899389F3
:102D40000497B9F442A553A54F5F5F4F53A742A71D
:102D5000662757FD6095762F86899789A08DB18D5E
:102D6000481759076A077B0721F485E090E0938BA9
:102D7000828B08952F923F924F925F926F927F9233
:102D80008F929F92AF92BF92CF92DF92EF92FF927B
:102D90000F931F93CF93DF9300D01F92CDB7DEB771
:102DA00049835A836B837C83490124E4249F8001F7
:102DB000259F100D1124085E1B4FD80152966D906F
:102DC0007C9053979301245031092230310508F04B
:102DD000BCC01D961C921E921C97FC011182108291
:102DE00013821282A12CB12C20E030E02815390585
:102DF0000CF067C0D8011A962D903C901B972A0CB6
:102E00003B1CF10140815181452B09F054C0608584
:102E1000718542805380468157811C96ED90FC90CD
:102E20001D976701F3E0CC0CDD1CFA95E1F7509695
:102E3000ED91FC915197EC0DFD1D6701CC0CDD1C53
:102E40001E96ED90FC901F97EC0CFD1CD7012D9366
:102E50003C93D8011C96ED90FC901D97BFEFEB1AA8
:102E6000FB0AD8011D96FC92EE921C977383628335
:102E7000D1011B965C934E931A976417750748F41B
:102E8000461B570B5183408315821482178216828A
:102E900012C0D1011496CD90DC9015977601E40C08
:102EA000F51CE61AF70AF182E0824C195D09558398
:102EB0004483D782C6822F5F3F4FBEE0AB0EB11C6A
:102EC00095CFF80124853585DC0111963C932E932E
:102ED0004089518913965C934E9312974685578586
:102EE00015965C934E931497232BD1F5B5E06B1692
:102EF0007104B1F51092A004828D938DA48DB58DCF
:102F0000AE014F5F5F4F64E070E08F3F9F4FAF4F68
:102F1000BF4F59F480E290E00E944B0769817A81AB
:102F20008B819C81A40197DA1BC08FE190E00E9405
:102F30004B07D8019B961C921E929A9781E090E0D5
:102F400053969C938E9352970BC0F8011586148666
:102F5000DC0111961C921E9213961C921E921297DF
:102F60000F900F900F900F90DF91CF911F910F91C5
:102F7000FF90EF90DF90CF90BF90AF909F908F9099
:102F80007F906F905F904F903F902F900895EF92B9
:102F9000FF920F931F93CF93DF937C018B01EA0184
:102FA0000E94B707811121C08091EA029091EB0243
:102FB000049711F183E090E09093EB028093EA0292
:102FC0001BC088818111F0CF28ED38EB45E050E03F
:102FD00060E070E0CB010E945308AE01B801C70168
:102FE0000E946208C8010E942D088091A10490915E
:102FF000A204892B31F3D8CFDF91CF911F910F918C
:10300000FF90EF900895CF93DF93EB012091EA02B8
:103010003091EB022430310539F00E946208CE0174
:10302000DF91CF910C942D08DF91CF9108950C94EE
:10303000D30B0C94C80B0C94B60B0C943D080C9459
:103040005A0B089560E070E080E090E00C948F07E8
:103050000895AF92BF92CF92DF92EF92FF920F93BB
:103060001F93CF93DF931F921F92CDB7DEB75C0102
:1030700069017A018B0180E090E0C114D104E10480
:10308000F104F1F0C114D10421E0E206F10410F4DE
:10309000A60102C04FEF5FEF9E012F5F3F4FB801C7
:1030A000C5010E94A2298F3F2FEF920749F0298185
:1030B0003A81C21AD30AE108F108020F131FDDCFCB
:1030C0000F900F90DF91CF911F910F91FF90EF9094
:1030D000DF90CF90BF90AF900895AF92BF92CF9204
:1030E000DF92EF92FF920F931F93CF93DF931F9284
:1030F0001F92CDB7DEB75C0169017A018B0180E0D8
:1031000090E0C114D104E104F104F1F0C114D10440
:1031100021E0E206F10410F4A60102C04FEF5FEFD8
:103120009E012F5F3F4FB801C5010E94E0298F3FEC
:103130002FEF920749F029813A81C21AD30AE10898
:10314000F108020F131FDDCF0F900F90DF91CF9189
:103150001F910F91FF90EF90DF90CF90BF90AF90B5
:10316000089508951F920F920FB60F9211240BB677
:103170000F922F933F934F935F936F937F938F9310
:103180009F93AF93BF93EF93FF938091A704909188
:10319000A804892B29F0E091A704F091A8041995BF
:1031A000FF91EF91BF91AF919F918F917F916F911F
:1031B0005F914F913F912F910F900BBE0F900FBEDB
:1031C0000F901F9018951F920F920FB60F92112417
:1031D0000BB60F922F933F934F935F936F937F9311
:1031E0008F939F93AF93BF93EF93FF938091A90425
:1031F0009091AA04892B29F0E091A904F091AA04E6
:103200001995FF91EF91BF91AF919F918F917F9110
:103210006F915F914F913F912F910F900BBE0F9047
:103220000FBE0F901F9018951F920F920FB60F921E
:1032300011240BB60F922F933F934F935F936F938D
:103240007F938F939F93AF93BF93EF93FF9380915F
:10325000AB049091AC04892B29F0E091AB04F09180
:10326000AC041995FF91EF91BF91AF919F918F9110
:103270007F916F915F914F913F912F910F900BBE76
:103280000F900FBE0F901F9018951F920F920FB6C0
:103290000F9211240BB60F922F933F934F935F938E
:1032A0006F937F938F939F93AF93BF93EF93FF930E
:1032B0008091AD049091AE04892B29F0E091AD048A
:1032C000F091AE041995FF91EF91BF91AF919F914D
:1032D0008F917F916F915F914F913F912F910F90BF
:1032E0000BBE0F900FBE0F901F9018951F920F925C
:1032F0000FB60F9211240BB60F922F933F934F935B
:103300005F936F937F938F939F93AF93BF93EF934D
:10331000FF938091A3049091A404892B29F0E0915C
:10332000A304F091A4041995FF91EF91BF91AF917F
:103330009F918F917F916F915F914F913F912F91CD
:103340000F900BBE0F900FBE0F901F9018951F92FD
:103350000F920FB60F9211240BB60F922F933F933B
:103360004F935F936F937F938F939F93AF93BF938D
:10337000EF93FF938091A5049091A604892B29F0E7
:10338000E091A504F091A6041995FF91EF91BF91EA
:10339000AF919F918F917F916F915F914F913F91ED
:1033A0002F910F900BBE0F900FBE0F901F9018958E
:1033B0001F920F920FB60F9211240BB60F922F93FC
:1033C0003F934F935F936F937F938F939F93AF93AD
:1033D000BF93EF93FF938091AF049091B004892B3A
:1033E00029F0E091AF04F091B0041995FF91EF91AD
:1033F000BF91AF919F918F917F916F915F914F910D
:103400003F912F910F900BBE0F900FBE0F901F900A
:1034100018951F920F920FB60F9211240BB60F92B0
:103420002F933F934F935F936F937F938F939F93CC
:10343000AF93BF93EF93FF938091B1049091B20447
:10344000892B29F0E091B104F091B2041995FF9114
:10345000EF91BF91AF919F918F917F916F915F910C
:103460004F913F912F910F900BBE0F900FBE0F9079
:103470001F9018951F920F920FB60F9211242F9341
:103480003F938F939F93AF93BF938091B404909198
:10349000B504A091B604B091B7043091B30423E011
:1034A000230F2D3720F40196A11DB11D05C026E87C
:1034B000230F0296A11DB11D2093B3048093B40481
:1034C0009093B504A093B604B093B7048091B80468
:1034D0009091B904A091BA04B091BB040196A11DCA
:1034E000B11D8093B8049093B904A093BA04B0932B
:1034F000BB04BF91AF919F918F913F912F910F90FE
:103500000FBE0F901F9018953FB7F8948091B804A4
:103510009091B904A091BA04B091BB0426B5A89BC0
:1035200005C02F3F19F00196A11DB11D3FBF6627B1
:10353000782F892F9A2F620F711D811D911D42E0F6
:10354000660F771F881F991F4A95D1F70895CF926C
:10355000DF92EF92FF92CF93DF936B017C01D4DF78
:10356000EB01C114D104E104F10479F0FADDCCDF00
:103570006C1B7D0B683E7340A0F381E0C81AD10834
:10358000E108F108C851DC4FECCFDF91CF91FF90FB
:10359000EF90DF90CF900895789484B5826084BDD9
:1035A00084B5816084BD85B5826085BD85B5816047
:1035B00085BDEEE6F0E0808181608083E1E8F0E0A7
:1035C0001082808182608083808181608083E0E8D6
:1035D000F0E0808181608083E1EBF0E080818460B5
:1035E0008083E0EBF0E0808181608083E1E9F0E0BE
:1035F000808182608083808181608083E0E9F0E067
:10360000808181608083E1EAF0E080818260808354
:10361000808181608083E0EAF0E080818160808346
:10362000E1E2F1E08081826080838081816080833B
:10363000E0E2F1E0808181608083EAE7F0E0808170
:1036400084608083808182608083808181608083C8
:103650008081806880831092C1000895863308F0CD
:10366000865320917B00982F9870277F922B909300
:103670007B0087702091EC0290E4299F9001112437
:10368000822B80937C0080917A00806480937A0002
:1036900080917A0086FDFCCF80917800209179009E
:1036A00090E0922B08951F93CF93DF93182FEB0197
:1036B00061E011D1209711F460E004C0CF3FD10543
:1036C00031F461E0812FDF91CF911F913DC1E12F56
:1036D000F0E0E45BFE4F449150E0FA013197E231B3
:1036E000F10508F09BC0EE57FF4F0C94352D84B5C3
:1036F000806884BDC7BD97C084B5806284BDC8BDE5
:1037000092C080918000806880938000D09389006F
:10371000C093880088C08091800080628093800080
:10372000D0938B00C0938A007EC080918000886017
:1037300080938000D0938D00C0938C0074C08091E2
:10374000B00080688093B000C093B3006CC08091DB
:10375000B00080628093B000C093B40064C08091D8
:103760009000806880939000D0939900C093980057
:103770005AC080919000806280939000D0939B000B
:10378000C0939A0050C08091900088608093900010
:10379000D0939D00C0939C0046C08091A00080689B
:1037A0008093A0008091A0008F7B8093A000D09395
:1037B000A900C093A80037C08091A00080628093C8
:1037C000A000D093AB00C093AA002DC08091A000B0
:1037D00088608093A000D093AD00C093AC0023C05C
:1037E00080912001806880932001D0932901C093AB
:1037F000280119C080912001806280932001D0931C
:103800002B01C0932A010FC0809120018860809312
:103810002001D0932D01C0932C0105C0C038D105E3
:103820000CF04FCF49CFDF91CF911F91089590E0D9
:10383000FC013197E231F10508F04CC0EC56FF4F26
:103840000C94352D809180008F7703C0809180008B
:103850008F7D80938000089580918000877FF9CFCD
:1038600084B58F7702C084B58F7D84BD0895809123
:10387000B0008F7703C08091B0008F7D8093B0003F
:103880000895809190008F7707C0809190008F7D80
:1038900003C080919000877F80939000089580916D
:1038A000A0008F7707C08091A0008F7D03C080911A
:1038B000A000877F8093A0000895809120018F77DA
:1038C00007C0809120018F7D03C080912001877FF8
:1038D000809320010895CF93DF9390E0FC01EE5692
:1038E000FE4F2491FC01E852FE4F8491882349F158
:1038F00090E0880F991FFC01E85CFD4FA591B49101
:10390000825E9D4FFC01C591D4919FB7611108C0A3
:10391000F8948C91209582238C93888182230AC00D
:10392000623051F4F8948C91322F309583238C932C
:103930008881822B888304C0F8948C91822B8C938D
:103940009FBFDF91CF9108950F931F93CF93DF9384
:103950001F92CDB7DEB7282F30E0F901E45BFE4FB0
:103960008491F901EE56FE4F1491F901E852FE4F91
:1039700004910023C1F0882319F0698358DF69811D
:10398000E02FF0E0EE0FFF1FE25EFD4FA591B49136
:103990009FB7F8948C91611103C01095812301C0E9
:1039A000812B8C939FBF0F90DF91CF911F910F912F
:1039B0000895FC01818D228D90E0805C9F4F821BD9
:1039C00091098F7399270895FC01918D828D981725
:1039D00031F0828DE80FF11D858D90E008958FEF15
:1039E0009FEF0895FC01918D828D981761F0828D73
:1039F000DF01A80FB11D5D968C91928D9F5F9F7323
:103A0000928F90E008958FEF9FEF0895FC01848DD1
:103A1000DF01A80FB11DA35ABF4F2C91848D90E0F8
:103A200001968F739927848FA689B7892C93A089D3
:103A3000B1898C9180648C93938D848D981306C08A
:103A40000288F389E02D80818F7D80830895CF9354
:103A5000DF93EC01888D8823C1F0EA89FB8980819E
:103A600085FD05C0A889B9898C9186FD0EC00FB669
:103A700007FCF5CF808185FFF2CFA889B9898C91A9
:103A800085FFEDCFCE01C2DFE8CFDF91CF91089562
:103A9000CF92DF92FF920F931F93CF93DF931F92EA
:103AA000CDB7DEB76C01DC015B969C915B975C96B1
:103AB0008C915C97981307C05096ED91FC915197AB
:103AC000808185FD31C0F601038D10E00F5F1F4F2F
:103AD0000F731127F02EF601848DF81210C00FB667
:103AE00007FCF9CFD6015096ED91FC91519780815A
:103AF00085FFF1CFC601698389DF6981ECCF838DB2
:103B0000E80FF11DE35AFF4F6083D6015B960C93DB
:103B10005B975296ED91FC915397808180628083F0
:103B200081E058968C930DC0D6015696ED91FC918C
:103B3000579760835096ED91FC91519780818064F6
:103B4000808381E090E00F90DF91CF911F910F91E2
:103B5000FF90DF90CF900895BF92CF92DF92EF92C7
:103B6000FF92CF93DF93EC016A017B01B22EE889CB
:103B7000F98982E08083411581EE5807610571055E
:103B8000A1F060E079E08DE390E0A70196010E944A
:103B9000132D215031094109510956954795379503
:103BA0002795211580E1380798F0E889F989108276
:103BB00060E874E88EE190E0A70196010E94132D61
:103BC0002150310941095109569547953795279557
:103BD000EC85FD853083EE85FF852083188EEC898A
:103BE000FD89B082EA89FB89808180618083EA89CE
:103BF000FB89808188608083EA89FB898081806875
:103C00008083EA89FB8980818F7D8083DF91CF91DA
:103C1000FF90EF90DF90CF90BF9008951F920F928A
:103C20000FB60F9211240BB60F922F938F939F9381
:103C3000EF93FF93E091CC04F091CD048081E0916B
:103C4000D204F091D30482FD12C090818091D504FA
:103C50008F5F8F732091D604821751F0E091D504C5
:103C6000F0E0E454FB4F958F8093D50401C0808130
:103C7000FF91EF919F918F912F910F900BBE0F901D
:103C80000FBE0F901F9018951F920F920FB60F92B4
:103C900011240BB60F922F933F934F935F936F9323
:103CA0007F938F939F93AF93BF93EF93FF938CEB8F
:103CB00094E0ACDEFF91EF91BF91AF919F918F9116
:103CC0007F916F915F914F913F912F910F900BBE1C
:103CD0000F900FBE0F901F9018951092BF04109276
:103CE000BE0488EE93E0A0E0B0E08093C00490931F
:103CF000C104A093C204B093C30480EB93E09093FB
:103D0000BD048093BC0485EC90E09093C90480933B
:103D1000C80484EC90E09093CB048093CA0480ECB8
:103D200090E09093CD048093CC0481EC90E090934C
:103D3000CF048093CE0482EC90E09093D1048093E2
:103D4000D00486EC90E09093D3048093D204109238
:103D5000D5041092D6041092D7041092D804089576
:103D60001F920F920FB60F9211240BB60F922F9342
:103D70008F939F93EF93FF93E0916905F0916A050C
:103D80008081E0916F05F091700582FD12C09081F5
:103D9000809172058F5F8F7320917305821751F0A8
:103DA000E0917205F0E0E75AFA4F958F8093720523
:103DB00001C08081FF91EF919F918F912F910F9082
:103DC0000BBE0F900FBE0F901F9018951F920F9271
:103DD0000FB60F9211240BB60F922F933F934F9370
:103DE0005F936F937F938F939F93AF93BF93EF9363
:103DF000FF9389E595E00ADEFF91EF91BF91AF91C6
:103E00009F918F917F916F915F914F913F912F91F2
:103E10000F900BBE0F900FBE0F901F901895109231
:103E20005C0510925B0588EE93E0A0E0B0E0809323
:103E30005D0590935E05A0935F05B093600580EBF0
:103E400093E090935A05809359058DEC90E0909300
:103E50006605809365058CEC90E0909368058093EF
:103E6000670588EC90E090936A058093690589EC7A
:103E700090E090936C0580936B058AEC90E09093B2
:103E80006E0580936D058EEC90E0909370058093A5
:103E90006F051092720510927305109274051092BE
:103EA000750508951F920F920FB60F9211240BB64D
:103EB0000F922F938F939F93EF93FF93E0910606BA
:103EC000F09107068081E0910C06F0910D0682FDCD
:103ED00012C0908180910F068F5F8F732091100622
:103EE000821751F0E0910F06F0E0EA50FA4F958FFB
:103EF00080930F0601C08081FF91EF919F918F9178
:103F00002F910F900BBE0F900FBE0F901F90189522
:103F10001F920F920FB60F9211240BB60F922F9390
:103F20003F934F935F936F937F938F939F93AF9341
:103F3000BF93EF93FF9386EF95E068DDFF91EF91DC
:103F4000BF91AF919F918F917F916F915F914F91B1
:103F50003F912F910F900BBE0F900FBE0F901F90AF
:103F600018951092F9051092F80588EE93E0A0E0FC
:103F7000B0E08093FA059093FB05A093FC05B09305
:103F8000FD0580EB93E09093F7058093F60585EDB2
:103F900090E0909303068093020684ED90E0909366
:103FA00005068093040680ED90E0909307068093C9
:103FB000060681ED90E0909309068093080682ED55
:103FC00090E090930B0680930A0686ED90E0909324
:103FD0000D0680930C0610920F0610921006109298
:103FE00011061092120608951F920F920FB60F92AB
:103FF00011240BB60F922F938F939F93EF93FF9300
:10400000E091A306F091A4068081E091A906F091C9
:10401000AA0682FD12C090818091AC068F5F8F73DB
:104020002091AD06821751F0E091AC06F0E0ED561C
:10403000F94F958F8093AC0601C08081FF91EF917D
:104040009F918F912F910F900BBE0F900FBE0F90ED
:104050001F9018951F920F920FB60F9211240BB656
:104060000F922F933F934F935F936F937F938F9311
:104070009F93AF93BF93EF93FF9383E996E0C6DCE2
:10408000FF91EF91BF91AF919F918F917F916F9130
:104090005F914F913F912F910F900BBE0F900FBEEC
:1040A0000F901F901895109296061092950688EE24
:1040B00093E0A0E0B0E08093970690939806A093D9
:1040C0009906B0939A0680EB93E0909394068093C0
:1040D000930685E391E09093A00680939F0684E386
:1040E00091E09093A2068093A10680E391E09093E3
:1040F000A4068093A30681E391E09093A6068093A3
:10410000A50682E391E09093A8068093A70686E334
:1041100091E09093AA068093A9061092AC061092A3
:10412000AD061092AE061092AF060895AF92BF9200
:10413000CF92DF92EF92FF920F931F93CF93DF9373
:104140006C017B01C0E0D0E000E010E0F601EC0F74
:10415000FD1F4AE050E06281C701D7D05C016EE2EA
:10416000C70168D08A0D9B1D080F191F2196C33007
:10417000D10561F74AE050E0F6016581C701C5D07D
:10418000800F911FDF91CF911F910F91FF90EF90C2
:10419000DF90CF90BF90AF90089580EC93E0909324
:1041A0003107809330071092320710923307109234
:1041B0003407109235070895CF92DF92EF92FF9265
:1041C0000F931F93CF93DF936C017A01EB01E60EFF
:1041D000F71E00E010E0CE15DF0561F06991D60111
:1041E000ED91FC910190F081E02DC6011995080F29
:1041F000191FF1CFC801DF91CF911F910F91FF904F
:10420000EF90DF90CF9008956115710581F0DB018B
:104210000D900020E9F7AD0141505109461B570BA5
:10422000DC01ED91FC910280F381E02D199480E096
:1042300090E00895DC01ED91FC910190F081E02D7A
:1042400019948F929F92AF92BF92CF92DF92EF928A
:10425000FF920F931F93CF93DF93CDB7DEB7A19754
:104260000FB6F894DEBF0FBECDBF7C01C42EE52F84
:10427000CB01D22E19A221E02D1510F02AE0D22E6A
:104280008E010F5D1F4F8D2C912CA12CB12C6C2D0C
:104290007E2FA50194010E94132D8C2DD29E801992
:1042A0001124015011098A3014F4805D01C0895C29
:1042B000F8018083211531054105510521F0C22EF9
:1042C000E32FCA01E4CFB801C7019EDFA1960FB664
:1042D000F894DEBF0FBECDBFDF91CF911F910F913C
:1042E000FF90EF90DF90CF90BF90AF909F908F9016
:1042F00008952115310541F4DC01ED91FC91019007
:10430000F081E02D642F19949CCF9A01462F50E044
:1043100060E070E0EECF8230A9F028F4882349F005
:10432000813051F00895843009F1E8F0853009F1C9
:10433000089510926E00089580916F008D7F809394
:104340006F000895809170008D7F8093700081E0F0
:104350008093B0008091B100887F84608093B10029
:104360001092B30008951092710008951092720097
:104370000895109273000895CF93C82F8091ED0295
:104380008C1307C0E2E5F2E084919FEF9093ED0279
:1043900001C08FEFC0DF60E08C2FCF91D5CA1F9294
:1043A0000F920FB60F9211240BB60F922F933F93DB
:1043B0004F935F936F937F938F939F93AF93BF932D
:1043C000EF93FF938091390790913A07A0913B07B3
:1043D000B0913C07892B8A2B8B2B51F1909136079A
:1043E000E0913707F0913807808189278083809199
:1043F000390790913A07A0913B07B0913C071816F6
:1044000019061A061B06BCF48091390790913A07E9
:10441000A0913B07B0913C070197A109B109809396
:10442000390790933A07A0933B07B0933C0703C02A
:104430008091ED02A1DFFF91EF91BF91AF919F912C
:104440008F917F916F915F914F913F912F910F903D
:104450000BBE0F900FBE0F901F9018950895862FDA
:1044600060E039CA0895CF92DF92EF92FF920F93E6
:104470001F934AD860933D0770933E0780933F0790
:104480009093400700914107109142072091430704
:10449000309144076B017C01C01AD10AE20AF30A89
:1044A00048EEC41643E0D406E104F10448F06093FA
:1044B0004107709342078093430790934407C1D705
:1044C00081E01F910F91FF90EF90DF90CF900895C2
:1044D000CF92DF92EF92FF920F931F93CF93DF93D0
:1044E000FC01DB01CA01B901C12CD12C76011DE709
:1044F000C0E2C216D306E406F506C9F00C910330FB
:1045000021F0D3E8D00FD23080F41083DC91DC2787
:10451000D18332966F5F7F4F8F4F9F4FDFEFCD1A62
:10452000DD0AED0AFD0A1196E4CF0193F7CFDF9182
:10453000CF911F910F91FF90EF90DF90CF90089552
:10454000AF92BF92CF92DF92EF92FF920F931F93A1
:10455000CF93DF93CDB7DEB72C970FB6F894DEBFBD
:104560000FBECDBF8C015B01FB018181882309F463
:1045700086C08EE7F8018083818383E08587868704
:10458000108A1786128A118A138A148A158A168A43
:10459000178A22E030E040E050E0B801C501CFD2F8
:1045A00081116EC021E030E040E050E0B8016E5F64
:1045B0007F4FCE0101968CDF9B01AC01BE016F5F86
:1045C0007F4FC501BCD281115BC0F5012081F8018C
:1045D00083819481A581B68189879A87AB87BC87BF
:1045E000211108C02B859A8589853C8539872A87C2
:1045F0009B878C8724E030E040E050E0BE01675F9D
:104600007F4FCE01019664DF9B01AC01BE016F5F5D
:104610007F4FC50194D2811133C0C12CD12C7601BA
:10462000F80183819481A581B681C816D906EA066E
:10463000FB06D8F4F801678170856C0D7D1D21E0C3
:1046400030E040E050E0CE01019642DF9B01AC013A
:10465000BE016F5F7F4FC50172D2811111C0FFEFA4
:10466000CF1ADF0AEF0AFF0ADBCFB801635F7F4F83
:1046700022E030E040E050E0C50161D201C080E0BE
:104680002C960FB6F894DEBF0FBECDBFDF91CF9151
:104690001F910F91FF90EF90DF90CF90BF90AF9060
:1046A00008952F923F924F925F926F927F928F92D6
:1046B0009F92AF92BF92CF92DF92EF92FF920F93B1
:1046C0001F93CF93DF93CDB7DEB727970FB6F8943C
:1046D000DEBF0FBECDBF7C016B011D8219821A8225
:1046E0001B821C82DB0111968C91882309F4AAC1DC
:1046F0008EE7F7018083818383E085878687108A30
:104700001786128A118A138A148A158A168A178ABA
:104710003396FF83EE8385E0482E512C5701FDE050
:10472000AF0EB11C47018FEF881A980A6624639474
:10473000712C170192E0290E311C8E010F5F1F4F63
:1047400021E030E040E050E0BE016B5F7F4FC601EA
:104750004BD2811178C189819A81AB81BC8101974B
:10476000A105B10551F0D70150961C921E921F97DA
:1047700052961C921E92519765C1F70187859089C8
:1047800002970397C8F497898D81992329F0178A96
:10479000F0E28F278D8310C08D3749F08E3739F1C5
:1047A000833051F4128A118A108A178605C0E1E01D
:1047B000D7015796EC93C1CFF70187859089823056
:1047C000910509F43FC02CF4009769F0019731F18D
:1047D000B4CF8430910509F4BEC00CF469C00597CC
:1047E00009F4F5C0AACF8D818E3709F0A6CFD70185
:1047F00052969C928E9251978C9353968D919D9147
:104800000D90BC91A02D0196A11DB11DF701838BC8
:10481000948BA58BB68B708A67868FCF8D818E37F0
:1048200009F00BC10188F289E02D8083F701138A1A
:10483000148A158A168A82E090E0908B8787328AE4
:10484000218A7BCFF70183899489A589B689892B31
:104850008A2B8B2B09F0F1C00188F289E02DCF0162
:104860000196D70152969C938E9351978D818083A8
:1048700053968D919D910D90BC91A02D0196A11DF7
:10488000B11DF701838B948BA58BB68B0197A10586
:10489000B10509F052CF83E090E0908B8787AE811D
:1048A000BF81B28BA18B138A148A158A168A45CFD1
:1048B000F70183899489A589B6890497A105B10573
:1048C00008F0BBC00188F289E02DCF010196D70125
:1048D00052969C938E9351978D81808353968D91A0
:1048E0009D910D90BC91A02D0196A11DB11DF701C8
:1048F000838B948BA58BB68B0497A105B10509F02A
:104900001CCFD6018C915381448135812681811140
:1049100003C0C901DA0104C0852F942FA32FB22F41
:10492000F70183839483A583B683138A148A158A37
:10493000168A892B8A2B8B2B49F084E090E0908B90
:10494000878787819085928B818BF7CE508A4786A7
:10495000B28AA18AF2CEF7014389548965897689A2
:1049600083819481A581B681481759076A077B071F
:1049700008F063C00188F289E02DCF010196D701CC
:1049800052969C938E9351978D81808353968D91EF
:104990009D910D90BC91A02D0196A11DB11DF70117
:1049A000838B948BA58BB68B4381548165817681F3
:1049B00084179507A607B70709F0BFCE508A478628
:1049C000B28AA18A138A148A158A168AB6CEF7018A
:1049D00083899489A589B6890297A105B10568F5EF
:1049E0002D81233051F50188F289E02DCF01019608
:1049F000D70152969C938E935197208353968D9115
:104A00009D910D90BC91A02D0196A11DB11DF701A6
:104A1000838B948BA58BB68B0297A105B10509F00A
:104A20008CCE86E090E0908B8787128A118A138A59
:104A3000148A158A168A80E006C0F701128A118A44
:104A4000108A178681E027960FB6F894DEBF0FBE56
:104A5000CDBFDF91CF911F910F91FF90EF90DF902D
:104A6000CF90BF90AF909F908F907F906F905F900E
:104A70004F903F902F90089581E0809345071092CA
:104A8000460785E497E00895CF92DF92EF92FF9278
:104A90000F931F93CF93DF938C017B016A01FC017D
:104AA0008181811120C06CE070E081E090E0F6D758
:104AB000EC0190934807809347070097A1F01A866E
:104AC0001B8681E0F8018183B601C70160D4998318
:104AD0008883E0914707F091480780819181019692
:104AE00021F4F801118281E001C080E0DF91CF91D3
:104AF0001F910F91FF90EF90DF90CF900895CF938B
:104B0000DF93FC0121812223B1F01182E09147075C
:104B1000F09148078081918131D4EC018091470761
:104B200090914807009711F00E94002E81E0219695
:104B300019F080E001C081E0DF91CF910895FC0180
:104B40008181882369F0E0914707F09148078081CF
:104B500091810E94291821E0019619F020E001C0FE
:104B600021E0822F08950F931F93CF93DF931F921D
:104B70001F92CDB7DEB78B011A821982DC01119624
:104B80008C91811102C081E028C0E0914707F0912B
:104B900048078285882321F081E0FB0180831CC0C7
:104BA000DB011C92BF016E5F7F4F9E012F5F3F4F65
:104BB00048E050E08081918103D4019621F38981FE
:104BC0009A81009749F091E0F8019083E0914707BE
:104BD000F09148078287138680E00F900F90DF9155
:104BE000CF911F910F9108958F929F92AF92BF9294
:104BF000CF92DF92EF92FF920F931F93CF93DF93A9
:104C00005B0169017A01F80110821182128213821C
:104C1000FC018181811102C081E032C0C09147074F
:104C2000D09148078A858823F1F090E049018217E6
:104C3000930708F44C016B8570E06E5F7F4F6C0F3B
:104C40007D1FA401C5010E948F2E8A8588198A873D
:104C50008B85880D8B87A80CB91CA7019601281994
:104C6000390941095109B501888199810E946D185E
:104C7000019691F2F801C082D182E282F38280E053
:104C8000DF91CF911F910F91FF90EF90DF90CF9028
:104C9000BF90AF909F908F900895CF93DF93FB01CB
:104CA00020813181DC016D917C91DA01A85BBF4FDD
:104CB000672B19F42115310531F0E901C85BDF4F8D
:104CC0005983488303C051834083FC01518340834F
:104CD0001D921C92DF91CF910895FC01DB018D9113
:104CE0009C91208131812115310519F4009709F437
:104CF0000895D901A85BBF4F8D919C911197918325
:104D00008083892B19F4FB01118210821D921C9261
:104D1000C9010895209150073091510780915207A1
:104D200090915307892B19F481E0232B09F080E03F
:104D3000089520914C0730914D0780914E07909136
:104D40004F07892B19F481E0232B09F080E00895A7
:104D5000CF93DF93C5E0D0E06AE470E081E090E0BB
:104D60009DD6009751F0AC0160E577E082E597E0D1
:104D700094DF219789F780E001C081E0DF91CF9136
:104D800008957F928F929F92AF92BF92CF92DF92BF
:104D9000EF92FF920F931F93CF93DF931F921F9277
:104DA000CDB7DEB75C01BC018DE697E07ADC782EEA
:104DB000811141C080916F07823019F4109254071D
:104DC0003AC0C0907007D0907107E0907207F090E1
:104DD0007307809074079090750760E577E082E52F
:104DE00097E07BDF8C01A601B40199D7F801E05C64
:104DF000FF4FEE24D7FCE094FE2CC082D182E282E9
:104E0000F38234961082118212821382A8016CE41C
:104E100077E08EE497E041DF7DDF81110CC002E096
:104E200010E09E012F5F3F4F40E050E060E070E0F7
:104E3000C50112D0782E872D0F900F90DF91CF9162
:104E40001F910F91FF90EF90DF90CF90BF90AF90A8
:104E50009F908F907F9008958F929F92AF92BF9274
:104E6000CF92DF92EF92FF920F931F93CF93DF9336
:104E700000D0CDB7DEB76C014B0158017A01433148
:104E8000510518F082E1E82EF12CF901F182E0825F
:104E900000E010E080915407882379F1F2E0AF162A
:104EA000B10459F11B82BE016D5F7F4FC6015BDE0D
:104EB00081113BC08B81811104C02CDF811106C0A0
:104EC000E7CFC6015EDF8823C1F32FC0083C110580
:104ED0001CF40F5F1F4FDECF3BDF811126C002E0C5
:104EE00010E09E012F5F3F4F40E050E060E070E037
:104EF000C601B2DF882361F218C0C701A0E0B0E0AC
:104F00008093580790935907A0935A07B0935B0773
:104F1000A0925707A701B40180915C0790915D07AB
:104F2000FED6B60185E597E00BDB0F900F900F9052
:104F3000DF91CF911F910F91FF90EF90DF90CF9075
:104F4000BF90AF909F908F900895CF93E3DE811133
:104F500007C060E577E082E597E0BFDE51D6F6CF87
:104F6000E8DE811107C06CE477E08EE497E0B5DEFF
:104F700047D6F6CF809174079091750741D6C8E166
:104F8000EDE6F7E0DF018C2F1D928A95E9F780911D
:104F90005C0790915D0734D6E5E5F7E0DF011D92EF
:104FA000CA95E9F710924D0710924C0710924F07DF
:104FB00010924E071092510710925007109253070B
:104FC0001092520710925407CF91089580E00895EF
:104FD00021E0FC0181819281892B09F420E0FB0111
:104FE000208380E008951092540708950F931F9333
:104FF000CF93DF93EC0109811A810115110529F086
:10500000A4DFC8017CDD1A821982DF91CF911F9144
:105010000F9108958F929F92AF92BF92CF92DF929D
:10502000EF92FF920F931F93CF93DF938C015B015D
:105030004A01C42FD92DEE24E394F12CEA14FB0489
:1050400084F4FFEFEF1AFF0A8A819B81009739F001
:105050006AEE73E074D6892B11F41B821A822296B1
:10506000EDCF81E0F801808307DDEC01009799F135
:105070006CDF80E490E02CD590935D0780935C0713
:10508000892B39F190E4C92ED12CE12CF12CC0925E
:105090005E07D0925F07E0926007F092610780E4BC
:1050A00090E016D59093750780937407892B89F04B
:1050B000C0927607D0927707E0927807F09279074E
:1050C00047DE811106C0A401B501CE01DDDC8823D5
:1050D00011F0C0E0D0E0F801D283C183CD2B19F0EC
:1050E00080E090E002C082EC93E0DF91CF911F91CD
:1050F0000F91FF90EF90DF90CF90BF90AF909F9077
:105100008F900895FC018081089589E497E00895C7
:1051100008956F927F928F929F92AF92BF92CF929B
:10512000DF92EF92FF920F931F93CF93DF931F9223
:105130001F92CDB7DEB77C015B018A014901FC01FA
:10514000C180D280F6DD8823C9F01982BE016F5F6D
:105150007F4FC60108DD782E811188C089818823A0
:1051600039F0C6010EDE811107C0E3DD882331F07E
:10517000F801118210827AC0782E78C0F701C180C0
:10518000D28080914E0790914F07009731F4C6016D
:10519000F8DD782E8823A9F369C07C01F4E4EF0ED2
:1051A000F11CF70140815181628173813C01F0E47F
:1051B0006F0E711CF30120813181241B350BF80126
:1051C000A216B3061CF03183208302C0B182A082F4
:1051D000BC01640F751FF80140815181C4019FD546
:1051E000F80180819181AA2797FDA095BA2FF70138
:1051F0004081518162817381840F951FA61FB71F63
:1052000080839183A283B383F301408151816281C2
:10521000738184179507A607B70739F57BDD182F2B
:10522000F3011082118212821382F701108211821F
:10523000128213826CE477E08EE497E04EDDAC01DD
:1052400060E577E082E597E028DD112371F002E068
:1052500010E09E012F5F3F4F40E050E060E070E0C3
:10526000C601FADD782E811101C0712C872D0F90B7
:105270000F90DF91CF911F910F91FF90EF90DF90F2
:10528000CF90BF90AF909F908F907F906F90089538
:105290005F926F927F928F929F92AF92BF92CF92C6
:1052A000DF92EF92FF920F931F93CF93DF931F92A2
:1052B0001F92CDB7DEB76B013A015901FC01818025
:1052C00092801A821982E12CF12C55245394EC140B
:1052D000FD04B4F401E010E09E012F5F3F4FA601F2
:1052E0004E195F09B3016E0D7F1DC401B5DD81113B
:1052F0000BC089819A81E80EF91E50925407E7CFBE
:1053000080E0F501D182C0820F900F90DF91CF91A4
:105310001F910F91FF90EF90DF90CF90BF90AF90D3
:105320009F908F907F906F905F9008950895CF9396
:10533000DF93EC0189819A81E2DB1A821982DF9185
:10534000CF9108950F931F93CF93DF93EA018901C3
:10535000F894E091BC04F091BD040280F381E02D4B
:105360008CEB94E019957894F801D183C08380E0A8
:1053700090E0DF91CF911F910F91089568EE73E057
:1053800080E090E00E94A71A80E090E008950E94DB
:10539000CC1A26E040E052EC61E070E08CEB94E047
:1053A0000E94AC1D8CEB94E00E94D91C892B29F043
:1053B0008CEB94E00E94F21CF5CF80E090E0089521
:1053C000CF92DF92EF92FF920F931F93CF93DF93D1
:1053D0001F921F92CDB7DEB77A016901F9011182E0
:1053E00010828CEB94E069837A830E94D91C6981D6
:1053F0007A81892BC9F08B01F601808191818E150C
:105400009F0590F48CEB94E00E94F21C8F3FFFEF1D
:105410009F0791F3F80181938F01F60180819181BB
:10542000019691838083E8CF80E090E00F900F9009
:10543000DF91CF911F910F91FF90EF90DF90CF9070
:1054400008952091850781E0820F809385072223AC
:1054500049F081E090E0909387078093860720933E
:10546000850708950E94610180918507815080938E
:1054700085070C941918FF920F931F93CF93DF9316
:105480001F921F92CDB7DEB781E08A830E94CC1AAB
:105490000E942E22E0916F03F0917003118210821E
:1054A00060E070E080E090E00E9422180E94F80422
:1054B000789400916F0310917003C80186960E9442
:1054C000211881E090E00E941D181982AE014F5F03
:1054D0005F4F61E070E0F801828193810E94C717FD
:1054E0008981882319F081E0F80182A70E94281899
:1054F000F8940E943222F80180819181892B19F45D
:1055000081E092A5911180E08A837894FF24F3943E
:105510008A81882319F11982AE014F5F5F4F61E0E4
:1055200070E0F801828193810E94031889818823A9
:1055300011F0F801F2A6F80180819181892B19F40C
:1055400081E092A5911180E08A838A81882319F0F5
:105550000E94332201C080E08A83DACF81E090E0AC
:105560000E941F180E94D105F89480E090E00F90EF
:105570000F90DF91CF911F910F91FF900895505898
:10558000BB27AA270ED097C188D130F08DD120F04B
:1055900031F49F3F11F41EF47DC10EF4E095E7FB5A
:1055A0004AC1E92F99D180F3BA17620773078407BC
:1055B000950718F071F49EF5C8C10EF4E0950B2E16
:1055C000BA2FA02D0B01B90190010C01CA01A00155
:1055D0001124FF27591B99F0593F50F4503E68F1B0
:1055E0001A16F040A22F232F342F4427585FF3CFF1
:1055F000469537952795A795F0405395C9F77EF4C2
:105600001F16BA0B620B730B840BBAF09150A1F00A
:10561000FF0FBB1F661F771F881FC2F70EC0BA0F90
:10562000621F731F841F48F4879577956795B79518
:10563000F7959E3F08F0B3CF9395880F08F0992710
:10564000EE0F979587950895D2D008F481E00895DC
:1056500004D06894B1117AC1089546D188F09F575B
:1056600090F0B92F9927B751A0F0D1F0660F771FAE
:10567000881F991F1AF0BA95C9F712C0B13081F08E
:1056800064D1B1E0089561C1672F782F8827B85F92
:1056900039F0B93FCCF3869577956795B395D9F7EF
:1056A0003EF490958095709561957F4F8F4F9F4FF9
:1056B0000895E89409C097FB3EF490958095709505
:1056C00061957F4F8F4F9F4F9923A9F0F92F96E94E
:1056D000BB279395F695879577956795B795F111C3
:1056E000F8CFFAF4BB0F11F460FF1BC06F5F7F4F60
:1056F0008F4F9F4F16C0882311F096E911C0772372
:1057000021F09EE8872F762F05C0662371F096E87A
:10571000862F70E060E02AF09A95660F771F881F49
:10572000DAF7880F9695879597F90895F7D080F066
:105730009F3740F491110EF009C160E070E080E8FD
:105740009FEB089526F41B16611D711D811D79C004
:1057500093C0A3D018F011F0A7D038F49BC0F6C0C6
:10576000E92FBAD0B0F35523C9F3E7FB62177307EB
:1057700084079507A8F199F3E92FFF2788232AF0DA
:105780003197660F771F881FDAF7952F5527442327
:1057900032F091505040220F331F441FD2F7BB27E5
:1057A000E91BF50B621B730B840BB109C1F222F4E8
:1057B000620F731F841FB11D31972AF0660F771F88
:1057C000881FBB1FEFCF915050405AF041F0882303
:1057D00032F0660F771F881F91505040C1F79395A4
:1057E0004BC08695779567959F5FD9F7F8CF990F4E
:1057F0000008550FAA0BE0E8FEEF16161706E8079B
:10580000F907C0F012161306E407F50798F0621BBB
:10581000730B840B950B39F40A2661F0232B242B90
:10582000252B21F408950A2609F4A140A6958FEFAF
:10583000811D811D089597F99F6780E870E060E001
:105840000895882371F4772321F09850872B762FC1
:1058500007C0662311F499270DC09051862B70E084
:1058600060E02AF09A95660F771F881FDAF7880F95
:105870009695879597F908959F3F31F0915020F4C0
:10588000879577956795B795880F911D969587951C
:1058900097F908959FEF80EC089500240A94161656
:1058A000170618060906089500240A94121613060E
:1058B000140605060895092E0394000C11F488239C
:1058C00052F0BB0F40F4BF2B11F460FF04C06F5FB8
:1058D0007F4F8F4F9F4F089557FD9058440F551F8E
:1058E00059F05F3F71F04795880F97FB991F61F062
:1058F0009F3F79F087950895121613061406551FD9
:10590000F2CF4695F1DF08C0161617061806991F44
:10591000F1CF86957105610508940895E5DFA0F043
:10592000BEE7B91788F4BB279F3860F41616B11D7F
:10593000672F782F8827985FF7CF8695779567959B
:10594000B11D93959639C8F30895E894BB2766274F
:105950007727CB0197F908954ADF08F48FEF089570
:105960000BD0A9CF9ADF28F09FDF18F0952309F01C
:1059700062CF90CF1124EACFAFDFA0F3959FD1F390
:10598000950F50E0551F629FF001729FBB27F00DED
:10599000B11D639FAA27F00DB11DAA1F649F662742
:1059A000B00DA11D661F829F2227B00DA11D621F91
:1059B000739FB00DA11D621F839FA00D611D221F4B
:1059C000749F3327A00D611D231F849F600D211D2F
:1059D000822F762F6A2F11249F5750408AF0E1F0D2
:1059E00088234AF0EE0FFF1FBB1F661F771F881F1B
:1059F00091505040A9F79E3F510570F01CCFA6CFA3
:105A00005F3FECF3983EDCF3869577956795B79505
:105A1000F795E7959F5FC1F7FE2B880F911D96952F
:105A2000879597F90895A1E21A2EAA1BBB1BFD01C9
:105A30000DC0AA1FBB1FEE1FFF1FA217B307E4076D
:105A4000F50720F0A21BB30BE40BF50B661F771FC5
:105A5000881F991F1A9469F76095709580959095A5
:105A60009B01AC01BD01CF010895EE0FFF1F059012
:105A7000F491E02D1994A29FB001B39FC001A39FA0
:105A8000700D811D1124911DB29F700D811D112477
:105A9000911D08950790F691E02D19940F931F938F
:105AA000CF93DF93869F8001879F100D969F100DE7
:105AB0001124C8010DD0EC01009721F0A80160E08D
:105AC00070E036D1CE01DF91CF911F910F910895F3
:105AD000CF93DF938230910510F482E090E0E09163
